{
  "contractName": "Media",
  "abi": [
    {
      "constant": true,
      "inputs": [],
      "name": "owner",
      "outputs": [
        {
          "name": "",
          "type": "address"
        }
      ],
      "payable": false,
      "stateMutability": "view",
      "type": "function"
    },
    {
      "constant": false,
      "inputs": [
        {
          "name": "updated",
          "type": "string"
        }
      ],
      "name": "change",
      "outputs": [],
      "payable": false,
      "stateMutability": "nonpayable",
      "type": "function"
    },
    {
      "constant": true,
      "inputs": [
        {
          "name": "addr",
          "type": "address"
        }
      ],
      "name": "getMedia",
      "outputs": [
        {
          "name": "",
          "type": "string"
        }
      ],
      "payable": false,
      "stateMutability": "view",
      "type": "function"
    },
    {
      "inputs": [],
      "payable": false,
      "stateMutability": "nonpayable",
      "type": "constructor"
    },
    {
      "anonymous": false,
      "inputs": [
        {
          "indexed": true,
          "name": "_from",
          "type": "address"
        },
        {
          "indexed": false,
          "name": "mediaList",
          "type": "string"
        }
      ],
      "name": "MediaChange",
      "type": "event"
    }
  ],
  "bytecode": "0x6060604052341561000f57600080fd5b33600160006101000a81548173ffffffffffffffffffffffffffffffffffffffff021916908373ffffffffffffffffffffffffffffffffffffffff1602179055506105148061005f6000396000f300606060405260043610610057576000357c0100000000000000000000000000000000000000000000000000000000900463ffffffff1680638da5cb5b1461005c578063c1dcab14146100b1578063e151fbd71461010e575b600080fd5b341561006757600080fd5b61006f6101c0565b604051808273ffffffffffffffffffffffffffffffffffffffff1673ffffffffffffffffffffffffffffffffffffffff16815260200191505060405180910390f35b34156100bc57600080fd5b61010c600480803590602001908201803590602001908080601f016020809104026020016040519081016040528093929190818152602001838380828437820191505050505050919050506101e6565b005b341561011957600080fd5b610145600480803573ffffffffffffffffffffffffffffffffffffffff16906020019091905050610349565b6040518080602001828103825283818151815260200191508051906020019080838360005b8381101561018557808201518184015260208101905061016a565b50505050905090810190601f1680156101b25780820380516001836020036101000a031916815260200191505b509250505060405180910390f35b600160009054906101000a900473ffffffffffffffffffffffffffffffffffffffff1681565b806000803373ffffffffffffffffffffffffffffffffffffffff1673ffffffffffffffffffffffffffffffffffffffff168152602001908152602001600020908051906020019061023892919061042f565b503373ffffffffffffffffffffffffffffffffffffffff167f64994bfd57082993c14494da2bfae6b2739f7d8af432c7f238f0fc367028e7fb6000803373ffffffffffffffffffffffffffffffffffffffff1673ffffffffffffffffffffffffffffffffffffffff16815260200190815260200160002060405180806020018281038252838181546001816001161561010002031660029004815260200191508054600181600116156101000203166002900480156103385780601f1061030d57610100808354040283529160200191610338565b820191906000526020600020905b81548152906001019060200180831161031b57829003601f168201915b50509250505060405180910390a250565b6103516104af565b6000808373ffffffffffffffffffffffffffffffffffffffff1673ffffffffffffffffffffffffffffffffffffffff1681526020019081526020016000208054600181600116156101000203166002900480601f0160208091040260200160405190810160405280929190818152602001828054600181600116156101000203166002900480156104235780601f106103f857610100808354040283529160200191610423565b820191906000526020600020905b81548152906001019060200180831161040657829003601f168201915b50505050509050919050565b828054600181600116156101000203166002900490600052602060002090601f016020900481019282601f1061047057805160ff191683800117855561049e565b8280016001018555821561049e579182015b8281111561049d578251825591602001919060010190610482565b5b5090506104ab91906104c3565b5090565b602060405190810160405280600081525090565b6104e591905b808211156104e15760008160009055506001016104c9565b5090565b905600a165627a7a72305820c11832fe4ca4cab51dc1f0cdf76195f7986d80b43e4beee1f55af89344e20dfc0029",
  "source": "pragma solidity ^0.4.18;\n\ncontract Media {\n    mapping (address => string) private mediaList;\n    address public owner;\n\n    event MediaChange(\n      address indexed _from,\n      string mediaList\n    );\n\n    function Media() public {\n      owner = msg.sender;\n    }\n\n    /* Functions */\n    function change(string updated) public {\n      mediaList[msg.sender] = updated;\n      MediaChange(msg.sender, mediaList[msg.sender]);\n    }\n\n    function getMedia(address addr) public  constant returns (string) {\n      return mediaList[addr];\n    }\n}\n",
  "sourcePath": "/Users/andrewpierno/Desktop/personal/dev/blockchain/media_stamp/contracts/Media.sol",
  "compiler": {
    "name": "solc",
    "version": "0.4.18+commit.9cf6e910.Emscripten.clang"
  },
  "schemaVersion": "1.0.1",
  "updatedAt": "2017-12-30T10:43:16.189Z"
}